{
  "_format": "hh-sol-artifact-1",
  "contractName": "CharacterCardMinter",
  "sourceName": "contracts/Minters/CharacterCardMinter.sol",
  "abi": [
    {
      "inputs": [],
      "stateMutability": "nonpayable",
      "type": "constructor"
    },
    {
      "anonymous": false,
      "inputs": [
        {
          "indexed": false,
          "internalType": "address",
          "name": "previousAdmin",
          "type": "address"
        },
        {
          "indexed": false,
          "internalType": "address",
          "name": "newAdmin",
          "type": "address"
        }
      ],
      "name": "AdminChanged",
      "type": "event"
    },
    {
      "anonymous": false,
      "inputs": [
        {
          "indexed": true,
          "internalType": "address",
          "name": "beacon",
          "type": "address"
        }
      ],
      "name": "BeaconUpgraded",
      "type": "event"
    },
    {
      "anonymous": false,
      "inputs": [
        {
          "indexed": false,
          "internalType": "uint8",
          "name": "version",
          "type": "uint8"
        }
      ],
      "name": "Initialized",
      "type": "event"
    },
    {
      "anonymous": false,
      "inputs": [
        {
          "indexed": false,
          "internalType": "address",
          "name": "account",
          "type": "address"
        }
      ],
      "name": "Paused",
      "type": "event"
    },
    {
      "anonymous": false,
      "inputs": [
        {
          "indexed": true,
          "internalType": "bytes32",
          "name": "role",
          "type": "bytes32"
        },
        {
          "indexed": true,
          "internalType": "bytes32",
          "name": "previousAdminRole",
          "type": "bytes32"
        },
        {
          "indexed": true,
          "internalType": "bytes32",
          "name": "newAdminRole",
          "type": "bytes32"
        }
      ],
      "name": "RoleAdminChanged",
      "type": "event"
    },
    {
      "anonymous": false,
      "inputs": [
        {
          "indexed": true,
          "internalType": "bytes32",
          "name": "role",
          "type": "bytes32"
        },
        {
          "indexed": true,
          "internalType": "address",
          "name": "account",
          "type": "address"
        },
        {
          "indexed": true,
          "internalType": "address",
          "name": "sender",
          "type": "address"
        }
      ],
      "name": "RoleGranted",
      "type": "event"
    },
    {
      "anonymous": false,
      "inputs": [
        {
          "indexed": true,
          "internalType": "bytes32",
          "name": "role",
          "type": "bytes32"
        },
        {
          "indexed": true,
          "internalType": "address",
          "name": "account",
          "type": "address"
        },
        {
          "indexed": true,
          "internalType": "address",
          "name": "sender",
          "type": "address"
        }
      ],
      "name": "RoleRevoked",
      "type": "event"
    },
    {
      "anonymous": false,
      "inputs": [
        {
          "indexed": true,
          "internalType": "address",
          "name": "from",
          "type": "address"
        },
        {
          "indexed": false,
          "internalType": "address",
          "name": "_address",
          "type": "address"
        }
      ],
      "name": "TuringCreditSet",
      "type": "event"
    },
    {
      "anonymous": false,
      "inputs": [
        {
          "indexed": true,
          "internalType": "address",
          "name": "from",
          "type": "address"
        },
        {
          "indexed": false,
          "internalType": "uint256",
          "name": "fee",
          "type": "uint256"
        }
      ],
      "name": "TuringFeePaid",
      "type": "event"
    },
    {
      "anonymous": false,
      "inputs": [
        {
          "indexed": true,
          "internalType": "address",
          "name": "from",
          "type": "address"
        },
        {
          "indexed": false,
          "internalType": "address",
          "name": "_address",
          "type": "address"
        }
      ],
      "name": "TuringHelperSet",
      "type": "event"
    },
    {
      "anonymous": false,
      "inputs": [
        {
          "indexed": false,
          "internalType": "address",
          "name": "account",
          "type": "address"
        }
      ],
      "name": "Unpaused",
      "type": "event"
    },
    {
      "anonymous": false,
      "inputs": [
        {
          "indexed": true,
          "internalType": "address",
          "name": "implementation",
          "type": "address"
        }
      ],
      "name": "Upgraded",
      "type": "event"
    },
    {
      "inputs": [],
      "name": "DEFAULT_ADMIN_ROLE",
      "outputs": [
        {
          "internalType": "bytes32",
          "name": "",
          "type": "bytes32"
        }
      ],
      "stateMutability": "view",
      "type": "function"
    },
    {
      "inputs": [],
      "name": "allowlistActive",
      "outputs": [
        {
          "internalType": "bool",
          "name": "",
          "type": "bool"
        }
      ],
      "stateMutability": "view",
      "type": "function"
    },
    {
      "inputs": [],
      "name": "allowlistEndTime",
      "outputs": [
        {
          "internalType": "uint256",
          "name": "",
          "type": "uint256"
        }
      ],
      "stateMutability": "view",
      "type": "function"
    },
    {
      "inputs": [],
      "name": "getAllowlist",
      "outputs": [
        {
          "internalType": "address[]",
          "name": "",
          "type": "address[]"
        }
      ],
      "stateMutability": "view",
      "type": "function"
    },
    {
      "inputs": [],
      "name": "getAllowlistCount",
      "outputs": [
        {
          "internalType": "uint256",
          "name": "",
          "type": "uint256"
        }
      ],
      "stateMutability": "view",
      "type": "function"
    },
    {
      "inputs": [
        {
          "internalType": "bytes32",
          "name": "role",
          "type": "bytes32"
        }
      ],
      "name": "getRoleAdmin",
      "outputs": [
        {
          "internalType": "bytes32",
          "name": "",
          "type": "bytes32"
        }
      ],
      "stateMutability": "view",
      "type": "function"
    },
    {
      "inputs": [
        {
          "internalType": "bytes32",
          "name": "role",
          "type": "bytes32"
        },
        {
          "internalType": "uint256",
          "name": "index",
          "type": "uint256"
        }
      ],
      "name": "getRoleMember",
      "outputs": [
        {
          "internalType": "address",
          "name": "",
          "type": "address"
        }
      ],
      "stateMutability": "view",
      "type": "function"
    },
    {
      "inputs": [
        {
          "internalType": "bytes32",
          "name": "role",
          "type": "bytes32"
        }
      ],
      "name": "getRoleMemberCount",
      "outputs": [
        {
          "internalType": "uint256",
          "name": "",
          "type": "uint256"
        }
      ],
      "stateMutability": "view",
      "type": "function"
    },
    {
      "inputs": [
        {
          "internalType": "bytes32",
          "name": "role",
          "type": "bytes32"
        },
        {
          "internalType": "address",
          "name": "account",
          "type": "address"
        }
      ],
      "name": "grantRole",
      "outputs": [],
      "stateMutability": "nonpayable",
      "type": "function"
    },
    {
      "inputs": [
        {
          "internalType": "bytes32",
          "name": "role",
          "type": "bytes32"
        },
        {
          "internalType": "address",
          "name": "account",
          "type": "address"
        }
      ],
      "name": "hasRole",
      "outputs": [
        {
          "internalType": "bool",
          "name": "",
          "type": "bool"
        }
      ],
      "stateMutability": "view",
      "type": "function"
    },
    {
      "inputs": [],
      "name": "initialize",
      "outputs": [],
      "stateMutability": "nonpayable",
      "type": "function"
    },
    {
      "inputs": [
        {
          "internalType": "address",
          "name": "account",
          "type": "address"
        }
      ],
      "name": "isAllowlisted",
      "outputs": [
        {
          "internalType": "bool",
          "name": "",
          "type": "bool"
        }
      ],
      "stateMutability": "view",
      "type": "function"
    },
    {
      "inputs": [],
      "name": "mintCard",
      "outputs": [],
      "stateMutability": "payable",
      "type": "function"
    },
    {
      "inputs": [],
      "name": "pause",
      "outputs": [],
      "stateMutability": "nonpayable",
      "type": "function"
    },
    {
      "inputs": [],
      "name": "paused",
      "outputs": [
        {
          "internalType": "bool",
          "name": "",
          "type": "bool"
        }
      ],
      "stateMutability": "view",
      "type": "function"
    },
    {
      "inputs": [],
      "name": "price",
      "outputs": [
        {
          "internalType": "uint256",
          "name": "",
          "type": "uint256"
        }
      ],
      "stateMutability": "view",
      "type": "function"
    },
    {
      "inputs": [],
      "name": "proxiableUUID",
      "outputs": [
        {
          "internalType": "bytes32",
          "name": "",
          "type": "bytes32"
        }
      ],
      "stateMutability": "view",
      "type": "function"
    },
    {
      "inputs": [
        {
          "internalType": "bytes32",
          "name": "role",
          "type": "bytes32"
        },
        {
          "internalType": "address",
          "name": "account",
          "type": "address"
        }
      ],
      "name": "renounceRole",
      "outputs": [],
      "stateMutability": "nonpayable",
      "type": "function"
    },
    {
      "inputs": [
        {
          "internalType": "bytes32",
          "name": "role",
          "type": "bytes32"
        },
        {
          "internalType": "address",
          "name": "account",
          "type": "address"
        }
      ],
      "name": "revokeRole",
      "outputs": [],
      "stateMutability": "nonpayable",
      "type": "function"
    },
    {
      "inputs": [
        {
          "internalType": "uint256",
          "name": "_price",
          "type": "uint256"
        }
      ],
      "name": "setPrice",
      "outputs": [],
      "stateMutability": "nonpayable",
      "type": "function"
    },
    {
      "inputs": [
        {
          "internalType": "uint256",
          "name": "time",
          "type": "uint256"
        }
      ],
      "name": "setStartTime",
      "outputs": [],
      "stateMutability": "nonpayable",
      "type": "function"
    },
    {
      "inputs": [
        {
          "internalType": "address",
          "name": "_treasury",
          "type": "address"
        }
      ],
      "name": "setTreasury",
      "outputs": [],
      "stateMutability": "nonpayable",
      "type": "function"
    },
    {
      "inputs": [],
      "name": "startTime",
      "outputs": [
        {
          "internalType": "uint256",
          "name": "",
          "type": "uint256"
        }
      ],
      "stateMutability": "view",
      "type": "function"
    },
    {
      "inputs": [
        {
          "internalType": "bytes4",
          "name": "interfaceId",
          "type": "bytes4"
        }
      ],
      "name": "supportsInterface",
      "outputs": [
        {
          "internalType": "bool",
          "name": "",
          "type": "bool"
        }
      ],
      "stateMutability": "view",
      "type": "function"
    },
    {
      "inputs": [],
      "name": "treasury",
      "outputs": [
        {
          "internalType": "address",
          "name": "",
          "type": "address"
        }
      ],
      "stateMutability": "view",
      "type": "function"
    },
    {
      "inputs": [],
      "name": "unpause",
      "outputs": [],
      "stateMutability": "nonpayable",
      "type": "function"
    },
    {
      "inputs": [
        {
          "internalType": "address",
          "name": "newImplementation",
          "type": "address"
        }
      ],
      "name": "upgradeTo",
      "outputs": [],
      "stateMutability": "nonpayable",
      "type": "function"
    },
    {
      "inputs": [
        {
          "internalType": "address",
          "name": "newImplementation",
          "type": "address"
        },
        {
          "internalType": "bytes",
          "name": "data",
          "type": "bytes"
        }
      ],
      "name": "upgradeToAndCall",
      "outputs": [],
      "stateMutability": "payable",
      "type": "function"
    }
  ],
  "bytecode": "0x60a0604052306080523480156200001557600080fd5b506200002062000026565b620000e8565b600054610100900460ff1615620000935760405162461bcd60e51b815260206004820152602760248201527f496e697469616c697a61626c653a20636f6e747261637420697320696e697469604482015266616c697a696e6760c81b606482015260840160405180910390fd5b60005460ff9081161015620000e6576000805460ff191660ff9081179091556040519081527f7f26b83ff96e1f2b6a682f133852f6798a09c465da95921460cefb38474024989060200160405180910390a15b565b60805161280e62000120600039600081816105ea0152818161062a015281816108d30152818161091301526109a2015261280e6000f3fe6080604052600436106101b75760003560e01c80637b7dc09e116100ec578063a035b1fe1161008a578063ca15c87311610064578063ca15c87314610484578063d547741f146104a4578063db82856c146104c4578063f0f44260146104da57600080fd5b8063a035b1fe14610436578063a217fddf1461044d578063c5eff3d01461046257600080fd5b80638b076b9b116100c65780638b076b9b146103bd5780639010d07c146103d657806391b7f5ed146103f657806391d148541461041657600080fd5b80637b7dc09e1461037e5780638129fc1c146103935780638456cb59146103a857600080fd5b80633e0a322d1161015957806352d1902d1161013357806352d1902d146103015780635c975abb1461031657806361d027b31461032e57806378e979251461036757600080fd5b80633e0a322d146102b95780633f4ba83a146102d95780634f1ef286146102ee57600080fd5b80632f2ff15d116101955780632f2ff15d1461024f57806336568abe146102715780633659cfe6146102915780633993c220146102b157600080fd5b806301ffc9a7146101bc57806305a3b809146101f1578063248a9ca314610211575b600080fd5b3480156101c857600080fd5b506101dc6101d736600461227e565b6104fa565b60405190151581526020015b60405180910390f35b3480156101fd57600080fd5b506101dc61020c3660046122c4565b610525565b34801561021d57600080fd5b5061024161022c3660046122df565b60009081526097602052604090206001015490565b6040519081526020016101e8565b34801561025b57600080fd5b5061026f61026a3660046122f8565b610533565b005b34801561027d57600080fd5b5061026f61028c3660046122f8565b61055d565b34801561029d57600080fd5b5061026f6102ac3660046122c4565b6105e0565b61026f6106bf565b3480156102c557600080fd5b5061026f6102d43660046122df565b61088d565b3480156102e557600080fd5b5061026f6108aa565b61026f6102fc36600461233a565b6108c9565b34801561030d57600080fd5b50610241610995565b34801561032257600080fd5b5060335460ff166101dc565b34801561033a57600080fd5b506102275461034f906001600160a01b031681565b6040516001600160a01b0390911681526020016101e8565b34801561037357600080fd5b506102416102255481565b34801561038a57600080fd5b50610241610a48565b34801561039f57600080fd5b5061026f610a5a565b3480156103b457600080fd5b5061026f610bff565b3480156103c957600080fd5b5061015d544211156101dc565b3480156103e257600080fd5b5061034f6103f13660046123fc565b610c1e565b34801561040257600080fd5b5061026f6104113660046122df565b610c3d565b34801561042257600080fd5b506101dc6104313660046122f8565b610c5a565b34801561044257600080fd5b506102416102265481565b34801561045957600080fd5b50610241600081565b34801561046e57600080fd5b50610477610c85565b6040516101e8919061241e565b34801561049057600080fd5b5061024161049f3660046122df565b610c92565b3480156104b057600080fd5b5061026f6104bf3660046122f8565b610ca9565b3480156104d057600080fd5b5061015d54610241565b3480156104e657600080fd5b5061026f6104f53660046122c4565b610cce565b60006001600160e01b03198216635a05180f60e01b148061051f575061051f82610d08565b92915050565b600061051f61015b83610d3d565b60008281526097602052604090206001015461054e81610d5f565b6105588383610d69565b505050565b6001600160a01b03811633146105d25760405162461bcd60e51b815260206004820152602f60248201527f416363657373436f6e74726f6c3a2063616e206f6e6c792072656e6f756e636560448201526e103937b632b9903337b91039b2b63360891b60648201526084015b60405180910390fd5b6105dc8282610d8b565b5050565b6001600160a01b037f00000000000000000000000000000000000000000000000000000000000000001630036106285760405162461bcd60e51b81526004016105c99061246b565b7f00000000000000000000000000000000000000000000000000000000000000006001600160a01b0316610671600080516020612772833981519152546001600160a01b031690565b6001600160a01b0316146106975760405162461bcd60e51b81526004016105c9906124b7565b6106a081610dad565b604080516000808252602082019092526106bc91839190610dc4565b50565b61015d54421015806106d857506106d861015b33610d3d565b6106e157600080fd5b6106e9610f2f565b6106f1610f8a565b6106f9610fd0565b60006107056102285490565b905061071661022880546001019055565b600061072b610190546001600160a01b031690565b6001600160a01b031663604a6fa96040518163ffffffff1660e01b81526004016020604051808303816000875af115801561076a573d6000803e3d6000fd5b505050506040513d601f19601f8201168201806040525081019061078e9190612503565b905060006107a082612710600f611135565b905060006107c7826000815181106107ba576107ba61251c565b60200260200101516111dc565b905060006040518060a00160405280868152602001600081526020018360058111156107f5576107f5612532565b8152602001604051806040016040528061080e87611200565b815260200161081c87611415565b81525081526020016040518060600160405280610838876114b8565b81526020016108468761156a565b81526020016000604051908082528060200260200182016040528015610876578160200160208202803683370190505b50905290525061088b94506115f59350505050565b565b6108a46000805160206127b9833981519152610d5f565b61022555565b6108c16000805160206127b9833981519152610d5f565b61088b6115fd565b6001600160a01b037f00000000000000000000000000000000000000000000000000000000000000001630036109115760405162461bcd60e51b81526004016105c99061246b565b7f00000000000000000000000000000000000000000000000000000000000000006001600160a01b031661095a600080516020612772833981519152546001600160a01b031690565b6001600160a01b0316146109805760405162461bcd60e51b81526004016105c9906124b7565b61098982610dad565b6105dc82826001610dc4565b6000306001600160a01b037f00000000000000000000000000000000000000000000000000000000000000001614610a355760405162461bcd60e51b815260206004820152603860248201527f555550535570677261646561626c653a206d757374206e6f742062652063616c60448201527f6c6564207468726f7567682064656c656761746563616c6c000000000000000060648201526084016105c9565b5060008051602061277283398151915290565b6000610a5561015b61164f565b905090565b600054610100900460ff1615808015610a7a5750600054600160ff909116105b80610a945750303b158015610a94575060005460ff166001145b610af75760405162461bcd60e51b815260206004820152602e60248201527f496e697469616c697a61626c653a20636f6e747261637420697320616c72656160448201526d191e481a5b9a5d1a585b1a5e995960921b60648201526084016105c9565b6000805460ff191660011790558015610b1a576000805461ff0019166101001790555b610b22611659565b610b2a611688565b610b326116af565b610b576020602160991b0173680e176b2bbdb2336063d0c82961bdb7a52cf13c6117a9565b63630aa1f0610225819055610b7890610b73906202a30061255e565b611800565b61022780546001600160a01b03191673d2578a0b2631e591890f28499e9e8d73f21e5895179055630ee6b28061022655610bb761022880546001019055565b80156106bc576000805461ff0019169055604051600181527f7f26b83ff96e1f2b6a682f133852f6798a09c465da95921460cefb38474024989060200160405180910390a150565b610c166000805160206127b9833981519152610d5f565b61088b61182d565b600082815260c960205260408120610c36908361186a565b9392505050565b610c546000805160206127b9833981519152610d5f565b61022655565b60009182526097602090815260408084206001600160a01b0393909316845291905290205460ff1690565b6060610a5561015b611876565b600081815260c96020526040812061051f9061164f565b600082815260976020526040902060010154610cc481610d5f565b6105588383610d8b565b610ce56000805160206127b9833981519152610d5f565b61022780546001600160a01b0319166001600160a01b0392909216919091179055565b60006001600160e01b03198216637965db0b60e01b148061051f57506301ffc9a760e01b6001600160e01b031983161461051f565b6001600160a01b03811660009081526001830160205260408120541515610c36565b6106bc8133611883565b610d7382826118dc565b600082815260c9602052604090206105589082611962565b610d958282611977565b600082815260c96020526040902061055890826119de565b6106bc6000805160206127b9833981519152610d5f565b7f4910fdfa16fed3260ed0e7147f7cc6da11a60208b5b9406d12a635614ffd91435460ff1615610df757610558836119f3565b826001600160a01b03166352d1902d6040518163ffffffff1660e01b8152600401602060405180830381865afa925050508015610e51575060408051601f3d908101601f19168201909252610e4e91810190612503565b60015b610eb45760405162461bcd60e51b815260206004820152602e60248201527f45524331393637557067726164653a206e657720696d706c656d656e7461746960448201526d6f6e206973206e6f74205555505360901b60648201526084016105c9565b6000805160206127728339815191528114610f235760405162461bcd60e51b815260206004820152602960248201527f45524331393637557067726164653a20756e737570706f727465642070726f786044820152681a58589b195555525160ba1b60648201526084016105c9565b50610558838383611a8f565b60026101295403610f825760405162461bcd60e51b815260206004820152601f60248201527f5265656e7472616e637947756172643a207265656e7472616e742063616c6c0060448201526064016105c9565b600261012955565b60335460ff161561088b5760405162461bcd60e51b815260206004820152601060248201526f14185d5cd8589b194e881c185d5cd95960821b60448201526064016105c9565b61018f5460408051637126fe6f60e11b815290516000926001600160a01b03169163e24dfcde9160048083019260209291908290030181865afa15801561101b573d6000803e3d6000fd5b505050506040513d601f19601f8201168201806040525081019061103f9190612503565b90508034146110905760405162461bcd60e51b815260206004820152601760248201527f496e73756666696369656e7420547572696e672046656500000000000000000060448201526064016105c9565b61018f5461019054604051631fb1244f60e31b8152600481018490526001600160a01b03918216602482015291169063fd8922789083906044016000604051808303818588803b1580156110e357600080fd5b505af11580156110f7573d6000803e3d6000fd5b50506040518481523393507f9d274ae0294d2443bf2deae07adf50a459e712b401fbc806742b3f45ef7cc4da9250602001905060405180910390a250565b60608167ffffffffffffffff81111561115057611150612324565b604051908082528060200260200182016040528015611179578160200160208202803683370190505b5090508360005b838110156111d35760006111948684612587565b90506111a0868461259b565b9250808483815181106111b5576111b561251c565b602090810291909101015250806111cb816125af565b915050611180565b50509392505050565b6000605a6111eb606484612587565b10156111f857600061051f565b600192915050565b60008060009050600060648460018151811061121e5761121e61251c565b60200260200101516112309190612587565b90506000604051806101000160405280600560ff168152602001600660ff168152602001601a60ff168152602001601b60ff168152602001601c60ff168152602001603a60ff168152602001605860ff168152602001606460ff1681525090506000604051806101000160405280600760ff168152602001600460ff168152602001600b60ff168152602001600a60ff168152602001600660ff168152602001602560ff168152602001600f60ff168152602001602460ff16815250905060005b60088160ff1610156113b457828160ff16600881106113125761131261251c565b602002015160ff168410156113795784828260ff16600881106113375761133761251c565b602002015160ff16886002815181106113525761135261251c565b60200260200101516113649190612587565b61136e919061255e565b979650505050505050565b818160ff166008811061138e5761138e61251c565b60200201516113a09060ff168661255e565b9450806113ac816125c8565b9150506112f1565b5060405162461bcd60e51b815260206004820152602f60248201527f436861726163746572436172644d696e7465723a3a4572726f7220726f6c6c6960448201526e1b99c818da185c9858dd195c881a59608a1b60648201526084016105c9565b604080518082019091526000808252602082015260006064836003815181106114405761144061251c565b60200260200101516114529190612587565b90506040518060400160405280600c856004815181106114745761147461251c565b60200260200101516114869190612587565b8152602001600683106114a957601283106114a25760036114ac565b60026114ac565b60015b60ff1690529392505050565b6114e36040518060800160405280600081526020016000815260200160008152602001600081525090565b6040518060800160405280611511846005815181106115045761150461251c565b6020026020010151611aba565b815260200161152c846006815181106115045761150461251c565b8152602001611547846007815181106115045761150461251c565b8152602001611562846008815181106115045761150461251c565b905292915050565b61158e60405180606001604052806060815260200160608152602001606081525090565b60405180606001604052806115a860018560096001611ba7565b81526020016115bc600085600a6003611ba7565b815260200160006040519080825280602002602001820160405280156115ec578160200160208202803683370190505b50905292915050565b600161012955565b611605611d28565b6033805460ff191690557f5db9ee0a495bf2e6ff9c91a7834c1ba4fdd244a5e8aa4e537bd38aeae4b073aa335b6040516001600160a01b03909116815260200160405180910390a1565b600061051f825490565b600054610100900460ff166116805760405162461bcd60e51b81526004016105c9906125e7565b61088b611d71565b600054610100900460ff1661088b5760405162461bcd60e51b81526004016105c9906125e7565b600054610100900460ff166116d65760405162461bcd60e51b81526004016105c9906125e7565b6116de611688565b6116e9600033610d69565b6117016000805160206127b983398151915233610d69565b61172b7f364d3d7565c7a8300c96fd53e065d19b65848d7b23b3191adcd55621c744223c33610d69565b6117557f9f2df0fed2c77648de5860a4cc508cd0818c85b8b8a1ab4ceeef8d981c8956a633610d69565b61177f7ff18b77e1ef402111bacb54bd5e03494cbdba92fbd1bd3bbcc1ce77e69b42ea6c33610d69565b61088b7f52ba824bfabc2bcfcdf7f0edbb486ebb05e1836c90e78047efeb949990f72e5f33610d69565b600054610100900460ff166117d05760405162461bcd60e51b81526004016105c9906125e7565b61018f80546001600160a01b039384166001600160a01b0319918216179091556101908054929093169116179055565b600054610100900460ff166118275760405162461bcd60e51b81526004016105c9906125e7565b61015d55565b611835610f8a565b6033805460ff191660011790557f62e78cea01bee320cd4e420270b5ea74000d11b0c9f74754ebdbfc544b05a2586116323390565b6000610c368383611da4565b60606000610c3683611dce565b61188d8282610c5a565b6105dc5761189a81611e2a565b6118a5836020611e3c565b6040516020016118b6929190612656565b60408051601f198184030181529082905262461bcd60e51b82526105c9916004016126cb565b6118e68282610c5a565b6105dc5760008281526097602090815260408083206001600160a01b03851684529091529020805460ff1916600117905561191e3390565b6001600160a01b0316816001600160a01b0316837f2f8788117e7eff1d82e926ec794901d17c78024a50270940304540a733656f0d60405160405180910390a45050565b6000610c36836001600160a01b038416611fd8565b6119818282610c5a565b156105dc5760008281526097602090815260408083206001600160a01b0385168085529252808320805460ff1916905551339285917ff6391f5c32d9c69d2a47ea670b442974b53935d1edc7fd64eb21e047a839171b9190a45050565b6000610c36836001600160a01b038416612027565b6001600160a01b0381163b611a605760405162461bcd60e51b815260206004820152602d60248201527f455243313936373a206e657720696d706c656d656e746174696f6e206973206e60448201526c1bdd08184818dbdb9d1c9858dd609a1b60648201526084016105c9565b60008051602061277283398151915280546001600160a01b0319166001600160a01b0392909216919091179055565b611a988361211a565b600082511180611aa55750805b1561055857611ab4838361215a565b50505050565b600080611ac96103e884612587565b90506001607d821015611ae0575060019392505050565b611aeb607d836126fe565b9150611af860018261255e565b9050610190821015611b225780611b10600484612587565b611b1a919061255e565b949350505050565b611b2d60048261255e565b9050611b3b610190836126fe565b915060fa821015611b525780611b10600584612587565b611b5d60058261255e565b9050611b6a60fa836126fe565b9150607d821015611b815780611b10600584612587565b611b8c60058261255e565b9050611b99607d836126fe565b915080611b10600584612587565b606060008267ffffffffffffffff811115611bc457611bc4612324565b604051908082528060200260200182016040528015611bed578160200160208202803683370190505b5090508515611cb45760006064868681518110611c0c57611c0c61251c565b6020026020010151611c1e9190612587565b9050600a8110611c895760148110611c825760358110611c7b57603a8110611c745760548110611c6d57605a8110611c6657605f8110611c5f576007611c8c565b6006611c8c565b6005611c8c565b6004611c8c565b6003611c8c565b6002611c8c565b6001611c8c565b60005b60ff1682600081518110611ca257611ca261251c565b60200260200101818152505050611d1f565b60005b83811015611d1d57600886611ccc838861255e565b81518110611cdc57611cdc61251c565b6020026020010151611cee9190612587565b828281518110611d0057611d0061251c565b602090810291909101015280611d15816125af565b915050611cb7565b505b95945050505050565b60335460ff1661088b5760405162461bcd60e51b815260206004820152601460248201527314185d5cd8589b194e881b9bdd081c185d5cd95960621b60448201526064016105c9565b600054610100900460ff16611d985760405162461bcd60e51b81526004016105c9906125e7565b6033805460ff19169055565b6000826000018281548110611dbb57611dbb61251c565b9060005260206000200154905092915050565b606081600001805480602002602001604051908101604052809291908181526020018280548015611e1e57602002820191906000526020600020905b815481526020019060010190808311611e0a575b50505050509050919050565b606061051f6001600160a01b03831660145b60606000611e4b836002612711565b611e5690600261255e565b67ffffffffffffffff811115611e6e57611e6e612324565b6040519080825280601f01601f191660200182016040528015611e98576020820181803683370190505b509050600360fc1b81600081518110611eb357611eb361251c565b60200101906001600160f81b031916908160001a905350600f60fb1b81600181518110611ee257611ee261251c565b60200101906001600160f81b031916908160001a9053506000611f06846002612711565b611f1190600161255e565b90505b6001811115611f89576f181899199a1a9b1b9c1cb0b131b232b360811b85600f1660108110611f4557611f4561251c565b1a60f81b828281518110611f5b57611f5b61251c565b60200101906001600160f81b031916908160001a90535060049490941c93611f8281612728565b9050611f14565b508315610c365760405162461bcd60e51b815260206004820181905260248201527f537472696e67733a20686578206c656e67746820696e73756666696369656e7460448201526064016105c9565b600081815260018301602052604081205461201f5750815460018181018455600084815260208082209093018490558454848252828601909352604090209190915561051f565b50600061051f565b6000818152600183016020526040812054801561211057600061204b6001836126fe565b855490915060009061205f906001906126fe565b90508181146120c457600086600001828154811061207f5761207f61251c565b90600052602060002001549050808760000184815481106120a2576120a261251c565b6000918252602080832090910192909255918252600188019052604090208390555b85548690806120d5576120d561273f565b60019003818190600052602060002001600090559055856001016000868152602001908152602001600020600090556001935050505061051f565b600091505061051f565b612123816119f3565b6040516001600160a01b038216907fbc7cd75a20ee27fd9adebab32041f755214dbc6bffa90cc0225b39da2e5c2d3b90600090a250565b60606001600160a01b0383163b6121c25760405162461bcd60e51b815260206004820152602660248201527f416464726573733a2064656c65676174652063616c6c20746f206e6f6e2d636f6044820152651b9d1c9858dd60d21b60648201526084016105c9565b600080846001600160a01b0316846040516121dd9190612755565b600060405180830381855af49150503d8060008114612218576040519150601f19603f3d011682016040523d82523d6000602084013e61221d565b606091505b5091509150611d1f8282604051806060016040528060278152602001612792602791396060831561224f575081610c36565b610c3683838151156122645781518083602001fd5b8060405162461bcd60e51b81526004016105c991906126cb565b60006020828403121561229057600080fd5b81356001600160e01b031981168114610c3657600080fd5b80356001600160a01b03811681146122bf57600080fd5b919050565b6000602082840312156122d657600080fd5b610c36826122a8565b6000602082840312156122f157600080fd5b5035919050565b6000806040838503121561230b57600080fd5b8235915061231b602084016122a8565b90509250929050565b634e487b7160e01b600052604160045260246000fd5b6000806040838503121561234d57600080fd5b612356836122a8565b9150602083013567ffffffffffffffff8082111561237357600080fd5b818501915085601f83011261238757600080fd5b81358181111561239957612399612324565b604051601f8201601f19908116603f011681019083821181831017156123c1576123c1612324565b816040528281528860208487010111156123da57600080fd5b8260208601602083013760006020848301015280955050505050509250929050565b6000806040838503121561240f57600080fd5b50508035926020909101359150565b6020808252825182820181905260009190848201906040850190845b8181101561245f5783516001600160a01b03168352928401929184019160010161243a565b50909695505050505050565b6020808252602c908201527f46756e6374696f6e206d7573742062652063616c6c6564207468726f7567682060408201526b19195b1959d85d1958d85b1b60a21b606082015260800190565b6020808252602c908201527f46756e6374696f6e206d7573742062652063616c6c6564207468726f7567682060408201526b6163746976652070726f787960a01b606082015260800190565b60006020828403121561251557600080fd5b5051919050565b634e487b7160e01b600052603260045260246000fd5b634e487b7160e01b600052602160045260246000fd5b634e487b7160e01b600052601160045260246000fd5b8082018082111561051f5761051f612548565b634e487b7160e01b600052601260045260246000fd5b60008261259657612596612571565b500690565b6000826125aa576125aa612571565b500490565b6000600182016125c1576125c1612548565b5060010190565b600060ff821660ff81036125de576125de612548565b60010192915050565b6020808252602b908201527f496e697469616c697a61626c653a20636f6e7472616374206973206e6f74206960408201526a6e697469616c697a696e6760a81b606082015260800190565b60005b8381101561264d578181015183820152602001612635565b50506000910152565b7f416363657373436f6e74726f6c3a206163636f756e742000000000000000000081526000835161268e816017850160208801612632565b7001034b99036b4b9b9b4b733903937b6329607d1b60179184019182015283516126bf816028840160208801612632565b01602801949350505050565b60208152600082518060208401526126ea816040850160208701612632565b601f01601f19169190910160400192915050565b8181038181111561051f5761051f612548565b808202811582820484141761051f5761051f612548565b60008161273757612737612548565b506000190190565b634e487b7160e01b600052603160045260246000fd5b60008251612767818460208701612632565b919091019291505056fe360894a13ba1a3210667c828492db98dca3e2076cc3735a920a3ca505d382bbc416464726573733a206c6f772d6c6576656c2064656c65676174652063616c6c206661696c6564a49807205ce4d355092ef5a8a18f56e8913cf4a201fbe287825b095693c21775a2646970667358221220922ac8d5000b19f9f607893d5a19bc73f4a3cbe476c17e0463afe306692fdea464736f6c63430008110033",
  "linkReferences": {},
  "deployedLinkReferences": {}
}